:020000040800F2
:10000000A8060020B501000891160008891600080E
:100010008D16000875030008A516000800000000F2
:100020000000000000000000000000009916000819
:100030007903000800000000951600089D160008CE
:10004000CF010008CF010008CF010008CF01000850
:10005000CF010008CF010008CF010008CF01000840
:10006000CF010008CF010008CF010008CF01000830
:10007000CF010008CF010008CF010008CF01000820
:10008000CF010008CF010008CF010008CF01000810
:10009000CF010008CF010008CF010008CF01000800
:1000A000CF010008CF010008CF010008CF010008F0
:1000B000CF010008CF010008CF010008CF010008E0
:1000C000CF010008CF010008CF010008CF010008D0
:1000D000CF010008CF010008CF010008CF010008C0
:1000E000CF010008CF010008CF01000800F002F89E
:1000F00000F050F814A696E8000CB244B344DA4578
:1001000001D100F047F8BAE80F000FA696E83000DA
:10011000A5EB040504EB0607AAEB0704A7F101070A
:100120004FEA15154FEA3414A4F10104AC4201D38F
:1001300000F030F813F0010F18BFFB1A43F0010371
:1001400000F001F8DBE71847201700004017000017
:10015000103A24BF78C878C1FAD8520724BF30C8F3
:1001600030C144BF04680C60704700007047000055
:100170000023002400250026103A28BF78C1FBD8B0
:10018000520728BF30C148BF0B6070471FB51FBD65
:1001900010B510BD00F031F81146FFF7F7FF01F080
:1001A00083FA00F04FF803B4FFF7F2FF03BC00F04E
:1001B00057F800000948804709480047FEE7FEE776
:1001C000FEE7FEE7FEE7FEE7FEE7FEE7FEE7FEE707
:1001D00004480549054A064B70470000A11600086F
:1001E000ED000008A8000020A8060020A8020020BA
:1001F000A8020020704770477047754600F02CF841
:10020000AE4605006946534620F00700854618B003
:1002100020B5FFF7DDFFBDE820404FF000064FF0AE
:1002200000074FF000084FF0000BAC46ACE8C009E7
:10023000ACE8C009ACE8C009ACE8C00921F007018E
:100240008D46704710B50446AFF300802046BDE8E8
:100250001040FFF7A8BF00000048704710000020C2
:1002600001491820ABBEFEE72600020070470000DF
:10027000B0B5044600688168C90709D0816821F0DB
:100280000101816000F04CFD21688968C90701D136
:100290000020B0BD054602E08068C007F8D000F03D
:1002A0003FFD411B20680329F6D38168C907F3D0BD
:1002B000A06A40F01000A062E06A40F00100E06235
:1002C0000120B0BDB0B582B0044600200190216885
:1002D0008A68D2074BD1886840F00100886040F2FC
:1002E0000800C2F2000000684DF68361C4F21B31C1
:1002F000A0FB0101880C01900198A0B10198013880
:100300000190019878B1019801380190019850B19D
:10031000019801380190019828B1019801380190A5
:1003200001980028EAD100F0FBFC21688968C90720
:100330001CD1054603E000BF8068C00716D100F05D
:10034000EFFC411B20680329F6D38168C907F3D16C
:10035000A06A40F01000A062E06A40F00100E06294
:10036000002084F82400012002B0B0BD002002B0BB
:10037000B0BD0000FEE700007047000070B582B01D
:1003800004460020019094F82400012804D102259D
:10039000284602B070BD00BF012084F8240020462A
:1003A000FFF766FF2046FFF78DFF0546002867D15F
:1003B000A06A41F2021188430230A06240F20800B4
:1003C000C2F200000668022000F054FDB6FBF0F017
:1003D000400001900198A0B1019801380190019866
:1003E00078B1019801380190019850B10198013815
:1003F0000190019828B101980138019001980028D6
:10040000EAD12068816841F00801816000F088FC31
:1004100021688A6812070DD4886840F0040088605B
:1004200000F07EFC21688968490713D401206FF031
:10043000030121E0064602E088680007ECD500F0E1
:100440006FFC801B21680B28F6D388680007F3D562
:100450000EE000BF064602E080684007E6D500F0E7
:100460005FFC811B20680B29F6D381684907F3D50F
:10047000012510206FF01201A26A11400843A0620A
:10048000002084F82400284602B070BD10B581B069
:100490000022009290F82420012A03D1022108466C
:1004A00001B010BD4B680122062B80F8242033D800
:1004B000D0F800C003EB83035A1F1F23DCF834E09D
:1004C00003FA02F40B682EEA040403FA02F2224350
:1004D000CCF83420092B03EB430249D9DCF80CE0BB
:1004E0001E3A0724896894402EEA0404914023F0C0
:1004F00001022143102ACCF80C1043D142F20841EA
:10050000C4F20101A1F10802944543D0816A41F08F
:1005100020018162012136E0D0F800C00C2B03EBF2
:10052000830213D8233A1F23DCF830E003FA02F4E5
:100530000B682EEA040403FA02F22243CCF83020BE
:10054000092B03EB4302C9D812E000BF413A1F2335
:10055000DCF82CE003FA02F40B682EEA040403FA38
:1005600002F22243CCF82C20092B03EB4302B5D82E
:10057000DCF81030072489689440A3439140194364
:10058000CCF810100021002280F82420084601B089
:1005900010BD00BF0A681202F4D40A68102B42F49E
:1005A00000020A60EED140F20801C2F200010968BF
:1005B0004DF68362C4F21B32A1FB0212910C01EBD7
:1005C00081014900009100990029DBD0009901398F
:1005D000009100990029D5D0009901390091009926
:1005E0000029CFD000990139009100990029C9D084
:1005F000009901390091009900294FF00001E5D1DF
:10060000C1E700000068C06C70470000002804BF0C
:1006100001207047B0B50446806A28B12168886817
:10062000C0070CD115E000BF0020E06284F8240070
:10063000204600F09BF821688868C00709D08868C8
:1006400020F00100886000F06BFB21688A68D20707
:1006500026D1A06AC0063AD4A06A41F202129043A1
:100660000230A062E069D4E9013240EA030C531E73
:10067000B3FA83F35D091346B2F5807F18BF2B02EE
:10068000207D257B01284CEA450030D135B3A56A91
:1006900045F02005A562E56A45F00105E56226E022
:1006A000054602E08868C007D3D000F039FB401B44
:1006B00021680328F6D38868C007F3D0A06A40F009
:1006C0001000A062E06A40F00100E062A06AA06A47
:1006D00040F01000A0620120B0BD00BFD4F818C0E7
:1006E0004EF60005CFF6FF7505EB4C352B434D68F4
:1006F000B2F5807F25F4694543EA05034B608B68BA
:100700004FF2FD75CFF6E17503EA050343EA0003F6
:100710008B6001D0012A07D122690023CFF6F07344
:1007200003EB025201E000BF0022CB6A23F4700306
:100730001A43CA62896840F6FE62CFF61F72114002
:10074000814207D10020E062A16A012262F3010127
:10075000A162B0BDA06A40F0100020F00200A062CB
:10076000E06A40F00100E0620120B0BD80B586B0D3
:10077000014640F60000C4F20100096800F5E052AD
:1007800091424FF00001CDE9041101D006B080BDC7
:1007900041F21801C4F202010A6842F400720A60D0
:1007A0000A6802F400720192019A0A6842F0040297
:1007B0000A60096801F00401019101990121029187
:1007C0000321039102A900F09DF906B080BD00004D
:1007D000F0B581B000270D460446009700F0A0FA5E
:1007E00021688A68D20543D406464868C00503D408
:1007F000C86A10F4700F45D040F20800C2F2000041
:100800000768022000F036FB216844F624130A69C9
:10081000B7FBF0F0C2F292431A4206D1CA6844F61E
:100820002413C0F292031A425ED00A6942F2924344
:10083000C1F249231A4207D1CA6842F29243C0F278
:1008400049031A4200F0C0800A6949F24923C0F204
:1008500024031A424FF0FC0257D1CF681F4208BF51
:100860005422009B02FB00F7BB4253D3C3E000BFFE
:10087000A06A40F02000A06284F82470012001B03A
:10088000F0BD00BF0868800700F1B580681C00F06B
:10089000A880FDB90868800772D50868800700F154
:1008A000AA80086880076BD50868800700F1A380DC
:1008B0000868800764D50868800700F19C80086894
:1008C00080075DD508688007E4D594E00868800754
:1008D00000F1918000F024FA801B2168A842F5D92C
:1008E00008688007F2D44BE00A6942F29243C1F2F1
:1008F00049231A424FF0290207D1CB6842F29247AE
:10090000C0F249073B4208BF1422009B02FB00F7DC
:10091000BB4270D2681C4FD055BB0098B8422FD351
:100920000098013000900098B84264D20098B84214
:1009300026D30098013000900098B8425BD200980E
:10094000B8421DD30098013000900098B84252D2AE
:100950000098B84214D30098013000900098B84233
:10096000DBD348E00098013000900098B84233D2C1
:1009700000F0D6F9801BA842F4D90098B842F1D211
:10098000A06A40F00400A062002084F82400032044
:1009900001B0F0BD0098013000900098B8422AD212
:1009A0000098013000900098B84224D2009801309D
:1009B00000900098B8421ED2009801300090009834
:1009C000B842E7D317E000BF5422009B02FB00F7B8
:1009D000BB429FD30FE000BF21680CE0086880078E
:1009E00009D40868800706D4086880075CBF0868D7
:1009F0005FEA8070F2D56FF012000860A06A40F4E0
:100A00000070A062886800F46020B0F5602F01D10A
:100A1000207B18B1002001B0F0BD00BFA06A20F417
:100A20008070A062A06AC004F4D4A06A40F0010003
:100A3000A062002001B0F0BD10B5044690F824007B
:100A4000012804BF022010BD012084F824002046A4
:100A5000FFF738FC20B1002084F82400012010BDED
:100A600042F2044C2068A16AC4F2010C40F2013247
:100A700091430CF57F7201F580719042A16233D0F1
:100A8000A16A21F48011A1624168490504D5A16AD7
:100A9000012363F30D31A162A16A0023C9044FF061
:100AA000000144BFE16A21F00601E1626FF002013A
:100AB00084F824300160816801F46021B1F5602F71
:100AC00006D190420AD1DCF8001011F4702F05D045
:100AD000816841F480118160002010BD816841F47B
:100AE000A0018160002010BDDCF8001011F4702F0F
:100AF000C6D0A16A41F48011A162DCF8001049055A
:100B0000C5D4C9E72DE9F04F82B00E68002E00F081
:100B1000FD8041F20042C4F20102042340F2004E83
:100B2000904208BF03234FF6FF7CC4F2010E0093EE
:100B300000240123C1F2100C4FF0000A4FF000090D
:100B400044E000BF012704F00C030F229A402BEA77
:100B5000020207FA03F34FEA9A051A4346F82520E2
:100B60004E6840F20C45F202DEF8082054BF22EA3B
:100B7000080242EA0802C4F20105CEF808202A68F9
:100B8000B30254BF22EA080242EA08022A60B30311
:100B9000DEF8042054BF22EA080242EA0802F30306
:100BA000CEF80420DEF800204FF0010354BF22EA03
:100BB000080242EA0802CEF800200E680AF1010A93
:100BC00036FA0AF204F1040400F0A08003FA0AFBEA
:100BD00016EA0B08F1D04E68664511DC122E55D886
:100BE000DFE806F0340A44485454545454545454DE
:100BF00054545454544C5000D1F80C9046E000BF6B
:100C00004FF6FF72C1F2210296420FDC0022C1F2C0
:100C1000110296421AD00022C1F21202964215D059
:100C20000022C1F22102964210D02FE00022C1F230
:100C3000220296420AD00022C1F23102964205D029
:100C40000022C1F23202964220D100BF8A684AB126
:100C5000012A14BFC0F814B0C0F810B04FF0080952
:100C600014E000BF4FF0040910E000BFCA6802F1B1
:100C700008090BE04FF0000908E000BFCA6802F164
:100C8000040903E0CA6802F10C0900BF22460646C7
:100C9000B8F5807F24BF203A043637680F25954089
:100CA00027EA050509FA02F22A433260CA79D20618
:100CB0007FF583AF41F21803C4F202031A68AEF560
:100CC0007E7642F001021A601A6802F00102019277
:100CD000019A2AF0030256F802B040F60002C4F26C
:100CE0000102904210D040F60042C4F2010290424C
:100CF0003FF428AF41F20002C4F20102009F90428B
:100D000008BF02271FE700BF00271CE702B0BDE8AD
:100D1000F08F0000002A08BF09040161704700003D
:100D200040F2A400C2F200000068704740F20000E8
:100D300040F2A401C2F20000C2F2000100780A6889
:100D4000104408607047000080B542F20000C4F211
:100D50000200016841F010010160032000F07AF800
:100D60000F2000F005F800F027F8002080BD0000FB
:100D700070B540F20006C2F2000640F20801327877
:100D8000C2F200014FF47A730968B3FBF2F2044631
:100D9000B1FBF2F1084600F061FC0F2C4FF00105A9
:100DA00008D838B94FF0FF3021460022002500F066
:100DB00025F87460284670BD82B041F21800C4F274
:100DC00002000168022241F001010160016801F0A6
:100DD000010101910199416841F0805141604068F1
:100DE00000F08050009000980420C4F201000168D7
:100DF00062F31A61016002B07047000010B54EF650
:100E00000C5CCEF2000CDCF80030C3F3022E8EF046
:100E10000704042C28BF0424BEF103034FF0FF3E57
:100E20000EFA04F438BF0023A14399400EFA03F3ED
:100E30009A43114300F00F0200F160430901043AA4
:100E400003F564436244002848BF02F10C031970A3
:100E500010BD00004EF60C51CEF200010A684FF6AC
:100E6000FF031A4060F30A2242F0806040F0FD70F8
:100E70000860704701280FD002282DD0102808D113
:100E800041F20401C4F202010A6851F8040CC001E5
:100E900034D40020704700BF41F20400C4F20200C5
:100EA000C16940F202320A40B2F5817F04BF4FF4BB
:100EB0000040704701F44071B1F5407F2AD0B1F590
:100EC000007F1CBF00207047006A49F64041800740
:100ED00001EAE070704700BF80B500F0ABF941F265
:100EE0000401C4F2020109680222C1F3813102EB5C
:100EF0004101B0FBF1F0BDE880407047C2F3834090
:100F000015A3185CD2030DD440F60012C0F23D02C6
:100F1000504313E050F8040C4FF22441800301EADF
:100F2000E07070470A6810A3C2F340429A5C41F235
:100F30000023C0F27A03B3FBF2F25043096849027E
:100F400048BF70474AF6AB214000CAF6AA21A0FB71
:100F500001014808704700BF02030405060708099D
:100F60000A0B0C0D0E0F1010010200002DE9F041CC
:100F700082B00446007841F21C06C007C4F20206A3
:100F80004AD030685FEAC00808D4306840F080502A
:100F90003060306800F080500190019847F20007FF
:100FA000C4F200073868C00512D4386840F4807075
:100FB0003860FFF7B5FE05463868C00508D4FFF76E
:100FC000AFFE401B6428F7D9032002B0BDE8F081D2
:100FD000706810F4407012D0616801F4407188426A
:100FE0000DD0706840F24042C4F24222012320F446
:100FF000407113600023C0071360716026D17068D0
:10100000616820F440700843B8F1000F706003D4A9
:10101000306820F0805030602068810707D556F88E
:10102000181CA26821F44041114346F8181CC00660
:1010300007D556F8180CE16820F48000084346F8FC
:10104000180C002002B0BDE8F08100BFFFF768FE79
:10105000054641F2883700BF70688007CFD4FFF79C
:101060005FFE401BB8424FF00300F5D9EAE70000ED
:10107000002804BF012070472DE9F04381B042F2FF
:101080000008C4F202080446D8F800000D4600F03B
:10109000070088420CD2D8F8000020F0070028434F
:1010A000C8F80000D8F8000000F00700A8426CD192
:1010B000206841F204098107C4F2020917D54107EB
:1010C00005D5D9F8001041F4E061C9F80010010716
:1010D00005D5D9F8001041F46051C9F80010D9F8CD
:1010E0000010A26821F0F0011143C9F80010C007F8
:1010F00042D1D8F8000000F00700A8420CD9D8F877
:10110000000020F007002843C8F80000D8F80000CD
:1011100000F00700A84238D12068410707D5D9F868
:101120000010E26821F4E0611143C9F800100007E3
:1011300008D5D9F80000216920F4605040EAC100C8
:10114000C9F80000D9F8002002F00C00082841F28C
:101150000020C0F27A0051D141F65603C2F3834118
:10116000C0F60003595CD2033CD440F60010C0F234
:101170003D00484342E000BF606802280AD00128D1
:101180002AD159F8041C890308D4012001B0BDE814
:10119000F08300BF59F8041C8901F6D5D9F8001076
:1011A00021F003010843C9F80000FFF7B9FD064626
:1011B00041F28837D9F80000616800F00C00B0EB0C
:1011C000810F96D0FFF7ACFD801BB842F2D9032007
:1011D00001B0BDE8F08300BF59F8041C8907D4D5DD
:1011E000DCE700BFD9F8002041F65403C2F34042C7
:1011F000C0F600039A5C4843B0FBF2F0D9F8001047
:1012000041F63C02C1F30311C0F60002515C40F20A
:10121000080220FA01F140F20400C2F20000006866
:10122000C2F200021160FFF7A3FD002001B0BDE88B
:10123000F083000040F2080041F20401C2F2000015
:10124000C4F202010068096841F64C02C1F3C221F0
:10125000C0F60002515CC84070470000002804BF7F
:10126000012070472DE9F04182B00446007841F238
:101270000006C007C4F202060CD0706800F00C0033
:10128000042840F081803068800303D5606800281E
:1012900000F04E81207880071BD5706810F00C0F8D
:1012A00009D0706800F00C00082840F08B8070684E
:1012B000C00300F187803068800703D520690128CA
:1012C00040F036813068616920F0F80040EAC100E2
:1012D00030602078000713D4207840072CD4E569CB
:1012E000002D00F02081706800F00C00082840F00C
:1012F000AF80012D40F00C81012002B0BDE8F081EB
:10130000A069002800F08C800020C4F24220012156
:10131000C0F88014FFF704FD054600BF706A80071F
:1013200000F1BA80FFF7FCFC401B0228F6D903202D
:1013300002B0BDE8F08100BFF0695FEAC00808D4E0
:10134000F06940F08050F061F06900F0805000904A
:10135000009847F20007C4F200073868C0054DD472
:10136000386840F480703860FFF7DAFC054600BF4B
:101370003868C00542D4FFF7D3FC401B6428F7D976
:10138000032002B0BDE8F081706800F00C0008286E
:1013900003D17068C0033FF576AF6068002800F0A5
:1013A0000981B0F5A02F00F01D81B0F5803F00F05D
:1013B0001D81306820F480303060306820F4802057
:1013C00017E100BF2069002840F20000C4F242206B
:1013D00000F08C8001210160FFF7A2FC054600BFF0
:1013E000306880073FF56EAFFFF79AFC401B02287C
:1013F000F6D9032002B0BDE8F08100BFE068002804
:1014000000F09A80052800F0B180012800F0B28039
:10141000306A20F001003062306A20F00400ACE055
:101420000020C4F242200021C0F88014FFF778FCAD
:10143000054600BF706A80077FF54EAFFFF770FC6E
:10144000401B0228F6D9032002B0BDE8F08100BF9E
:101450000027C4F2422700203866FFF761FC022D06
:1014600005460DD13068800140F1D680FFF758FC69
:10147000401B02284FF00300F4D902B0BDE8F08110
:10148000306880014FD5FFF74BFC401B02284FF01E
:101490000300F5D9F1E700BF40F20800C2F20000F6
:1014A000006844F6D351C1F26201A0FB0101480A71
:1014B000019000BF00BF0198411E002801913FF438
:1014C0000BAF00BF0198411E002801913FF404AF0B
:1014D00000BF0198411E002801913FF4FDAE00BFFE
:1014E0000198411E00280191E4D1F5E60021016038
:1014F000FFF716FC054600BF306880077FF5E9AEB0
:10150000FFF70EFC401B02284FF00300F4D9B4E7AC
:101510007068216A00F480328A4209D1616A00F45D
:101520007010884204D1002002B0BDE8F08100BFF5
:10153000012002B0BDE8F081306A20F00100306285
:10154000306A20F004003062FFF7EAFB054641F202
:10155000883700BF306A800722D5FFF7E1FB401BC8
:10156000B8424FF00300F5D987E700BF306A40F07A
:1015700004003062306A40F001003062FFF7D0FBB7
:10158000054641F2883700BF306A800708D4FFF76C
:10159000C7FB401BB842F7D9032002B0BDE8F08179
:1015A000B8F1000F3FF59BAEF06920F08050F0617C
:1015B00095E600BF306820F480303060306820F459
:1015C00080203060FFF7ACFB054600BF3068800329
:1015D0007FF560AEFFF7A4FB401B64284FF00300CB
:1015E000F4D94AE7306840F480203060306840F435
:1015F00080303060FFF794FB054600BF3068800301
:101600003FF548AEFFF78CFB401B6428F6D903205A
:1016100002B0BDE8F08100BF206AB0F5803F05D17F
:101620007168A26821F40031114371607168626AC7
:1016300021F4741111430843706001203866FFF7EC
:101640006FFB0446306880013FF56DAFFFF768FB24
:10165000001B02284FF00300F4D90EE7411E0020C2
:10166000B0EB116F1CBF012070474EF21002CEF29A
:10167000000251604EF62351CEF20001F0230B70B0
:101680000721906011607047FEE70000FEE7000050
:10169000FEE700007047000070470000FFF746BB00
:1016A00070470000FEE7000094B0FFF74DFB0024F8
:1016B0000120CDE90F44CDE90D440A900E904FF47E
:1016C000E0104FF48031022513900AA80494CDE96C
:1016D0000244CDE90B14CDE91151FFF7BFFD28B14C
:1016E000EFF3108072B600BFFEE700BF0F20CDE918
:1016F00005054FF48060CDE9080405A80221079490
:10170000FFF7B6FC20B1EFF3108072B6FEE700BF22
:101710004FF400400224039001A80194FFF726FC37
:1017200020B1EFF3108072B6FEE700BF41F218005F
:10173000C4F20200016840F6004841F02001016057
:101740000168C4F2010801F020010A910A990168B8
:10175000002241F0040101600168402601F004010B
:101760000A910A990168002541F0080101600068AA
:10177000402100F008000A900A984046FFF7CAFA94
:1017800001270AA940460A96CDE90B770D94FFF789
:10179000B9F940F27006C2F2000608F5C0513046B1
:1017A00040F8041F4FF4602105730575C161C0E95D
:1017B00001550761FEF72AFF20B1EFF3108072B6E2
:1017C000FEE700BFCDE90A570720351D0C900AA996
:1017D0002846FEF75BFE28B1EFF3108072B600BF1B
:1017E000FEE700BF2846FEF7C9FD4FF6FC7740F63E
:1017F0003B7400BF2846FFF71FF928464FF4967147
:10180000FEF7E6FF2846FEF7FDFE00EA0701A142CB
:10181000308009D8404640210022FFF77BFA30880B
:10182000B0F57A6FE6D903E080B2B0F57A6FE1D90E
:10183000404640210122FFF76DFADBE7000000007F
:101840000000000001020304060708090000000070
:1018500001020304010202030405060708090A0B3A
:101860000C0D0E0F1010000088180008000000205A
:101870001000000050010008981800081000002017
:101880009806000070010008010000001000000030
:081890000024F4000000000038
:04000005080000ED02
:00000001FF
