:020000040800F2
:10000000180D0020B5010008351700082D1700084D
:100010003117000871020008611800080000000094
:100020000000000000000000000000003D17000874
:100030007502000800000000391700084117000889
:10004000CF010008CF010008CF010008CF01000850
:10005000CF010008CF010008CF010008CF01000840
:10006000CF010008CF010008CF010008CF01000830
:10007000CF010008CF010008CF010008CF01000820
:10008000CF010008CF010008CF010008CF01000810
:10009000CF010008CF010008CF010008CF01000800
:1000A000CF010008CF010008CF010008CF010008F0
:1000B000CF010008CF010008CF010008CF010008E0
:1000C000CF010008CF010008CF010008CF010008D0
:1000D000CF01000855180008CF010008CF01000823
:1000E000CF010008CF010008CF01000800F002F89E
:1000F00000F050F814A696E8000CB244B344DA4578
:1001000001D100F047F8BAE80F000FA696E83000DA
:10011000A5EB040504EB0607AAEB0704A7F101070A
:100120004FEA15154FEA3414A4F10104AC4201D38F
:1001300000F030F813F0010F18BFFB1A43F0010371
:1001400000F001F8DBE7184700240000202400003D
:10015000103A24BF78C878C1FAD8520724BF30C8F3
:1001600030C144BF04680C60704700007047000055
:100170000023002400250026103A28BF78C1FBD8B0
:10018000520728BF30C148BF0B6070471FB51FBD65
:1001900010B510BD00F031F81146FFF7F7FF01F080
:1001A00061FB00F04FF803B4FFF7F2FF03BC00F06F
:1001B00057F800000948804709480047FEE7FEE776
:1001C000FEE7FEE7FEE7FEE7FEE7FEE7FEE7FEE707
:1001D00004480549054A064B7047000045170008CA
:1001E000ED00000818070020180D00201809002055
:1001F00018090020704770477047754600F02CF8CA
:10020000AE4605006946534620F00700854618B003
:1002100020B5FFF7DDFFBDE820404FF000064FF0AE
:1002200000074FF000084FF0000BAC46ACE8C009E7
:10023000ACE8C009ACE8C009ACE8C00921F007018E
:100240008D46704710B50446AFF300802046BDE8E8
:100250001040FFF7A8BF00000048704710000020C2
:1002600001491820ABBEFEE72600020070470000DF
:10027000FEE7000070470000014690F821000228C8
:1002800016D10868D1E90FC3026822F00E0202609D
:10029000026822F001020260012000FA03F2CCF8A9
:1002A000042081F821000020002281F820207047DE
:1002B000042088630120002281F82020704700007C
:1002C00090F82110022923D10268116821F00E0153
:1002D00011602F211368C4F202018A4240F2040126
:1002E000C4F2020123F00103136015DD3023C4F2D0
:1002F00002039A421CD04423C4F202039A421BD048
:100300005823C4F202039A421CD14FF4803321E0F7
:1003100004218163012070470823C4F202039A423A
:100320000ED01C23C4F202039A420BD1102311E019
:100330004FF480730EE000BF4FF480530AE000BF1B
:10034000012307E001F1680C4FF08073624508BF9C
:100350004FF480130B60012180F82110426B0021C3
:1003600080F8201022B180B590470021BDE8804080
:10037000084670472DE9F04F82B00E68002E00F05D
:10038000FD8041F20042C4F20102042340F2004E1B
:10039000904208BF03234FF6FF7CC4F2010E009386
:1003A00000240123C1F2100C4FF0000A4FF00009A5
:1003B00044E000BF012704F00C030F229A402BEA0F
:1003C000020207FA03F34FEA9A051A4346F825207A
:1003D0004E6840F20C45F202DEF8082054BF22EAD3
:1003E000080242EA0802C4F20105CEF808202A6891
:1003F000B30254BF22EA080242EA08022A60B303A9
:10040000DEF8042054BF22EA080242EA0802F3039D
:10041000CEF80420DEF800204FF0010354BF22EA9A
:10042000080242EA0802CEF800200E680AF1010A2A
:1004300036FA0AF204F1040400F0A08003FA0AFB81
:1004400016EA0B08F1D04E68664511DC122E55D81D
:10045000DFE806F0340A4448545454545454545475
:1004600054545454544C5000D1F80C9046E000BF02
:100470004FF6FF72C1F2210296420FDC0022C1F258
:10048000110296421AD00022C1F21202964215D0F1
:100490000022C1F22102964210D02FE00022C1F2C8
:1004A000220296420AD00022C1F23102964205D0C1
:1004B0000022C1F23202964220D100BF8A684AB1BE
:1004C000012A14BFC0F814B0C0F810B04FF00809EA
:1004D00014E000BF4FF0040910E000BFCA6802F149
:1004E00008090BE04FF0000908E000BFCA6802F1FC
:1004F000040903E0CA6802F10C0900BF224606465F
:10050000B8F5807F24BF203A043637680F25954020
:1005100027EA050509FA02F22A433260CA79D206AF
:100520007FF583AF41F21803C4F202031A68AEF5F7
:100530007E7642F001021A601A6802F0010201920E
:10054000019A2AF0030256F802B040F60002C4F203
:100550000102904210D040F60042C4F201029042E3
:100560003FF428AF41F20002C4F20102009F904222
:1005700008BF02271FE700BF00271CE702B0BDE845
:10058000F08F0000002A08BF0904016170470000D5
:1005900040F21070C2F200000068704740F20000A4
:1005A00040F21071C2F20000C2F2000100780A6845
:1005B000104408607047000080B542F20000C4F2A9
:1005C0000200016841F010010160032000F08CF886
:1005D0000F2000F005F800F027F8002080BD000093
:1005E00070B540F20006C2F2000640F2080132780F
:1005F000C2F200014FF47A730968B3FBF2F20446C9
:10060000B1FBF2F1084600F089FB0F2C4FF0010519
:1006100008D838B94FF0FF3021460022002500F0FD
:1006200037F87460284670BD82B041F21800C4F2F9
:1006300002000168022241F001010160016801F03D
:10064000010101910199416841F080514160406888
:1006500000F08050009000980420C4F2010001686E
:1006600062F31A61016002B070470000002848BFC1
:10067000704700F01F01012202FA01F11C2202EA78
:10068000D0004EF20012CEF20002815070470000FE
:1006900010B54EF60C5CCEF2000CDCF80030C3F363
:1006A000022E8EF00704042C28BF0424BEF103039D
:1006B0004FF0FF3E0EFA04F438BF0023A1439940E7
:1006C0000EFA03F39A43114300F00F0200F1604366
:1006D0000901043A03F564436244002848BF02F16B
:1006E0000C03197010BD00004EF60C51CEF2000143
:1006F0000A684FF6FF031A4060F30A2242F0806056
:1007000040F0FD7008607047002804BF012070476A
:100710002DE9F04381B042F20008C4F20208044619
:10072000D8F800000D4600F0070088420CD2D8F837
:10073000000020F007002843C8F80000D8F80000A7
:1007400000F00700A8426CD1206841F2040981073B
:10075000C4F2020917D5410705D5D9F8001041F4B4
:10076000E061C9F80010010705D5D9F8001041F47F
:100770006051C9F80010D9F80010A26821F0F0010A
:100780001143C9F80010C00742D1D8F8000000F0AA
:100790000700A8420CD9D8F8000020F00700284331
:1007A000C8F80000D8F8000000F00700A84238D1CF
:1007B0002068410707D5D9F80010E26821F4E0610C
:1007C0001143C9F80010000708D5D9F800002169C5
:1007D00020F4605040EAC100C9F80000D9F80020B8
:1007E00002F00C00082841F20020C0F27A0051D13A
:1007F00042F23653C2F38341C0F60003595CD20380
:100800003CD440F60010C0F23D00484342E000BF37
:10081000606802280AD001282AD159F8041C8903EB
:1008200008D4012001B0BDE8F08300BF59F8041CD2
:100830008901F6D5D9F8001021F003010843C9F861
:100840000000FFF7A5FE064641F28837D9F8000000
:10085000616800F00C00B0EB810F96D0FFF798FEB6
:10086000801BB842F2D9032001B0BDE8F08300BF7D
:1008700059F8041C8907D4D5DCE700BFD9F800205B
:1008800042F23453C2F34042C0F600039A5C48433C
:10089000B0FBF2F0D9F8001042F21C52C1F3031180
:1008A000C0F60002515C40F2080220FA01F140F269
:1008B0000400C2F200000068C2F200021160FFF7FB
:1008C0008FFE002001B0BDE8F083000040F2080078
:1008D00041F20401C2F20000C4F20201006809689A
:1008E00042F22C52C1F30221C0F60002515CC84012
:1008F0007047000040F2080041F20401C2F200001B
:10090000C4F202010068096842F22C52C1F3C2210C
:10091000C0F60002515CC84070470000002804BFC8
:10092000012070472DE9F04182B00446007841F281
:100930000006C007C4F202060CD0706800F00C007C
:10094000042840F081803068800303D56068002867
:1009500000F04E81207880071BD5706810F00C0FD6
:1009600009D0706800F00C00082840F08B80706897
:10097000C00300F187803068800703D52069012813
:1009800040F036813068616920F0F80040EAC1002B
:1009900030602078000713D4207840072CD4E56914
:1009A000002D00F02081706800F00C00082840F055
:1009B000AF80012D40F00C81012002B0BDE8F08134
:1009C000A069002800F08C800020C4F242200121A0
:1009D000C0F88014FFF7DCFD054600BF706A800791
:1009E00000F1BA80FFF7D4FD401B0228F6D903209E
:1009F00002B0BDE8F08100BFF0695FEAC00808D42A
:100A0000F06940F08050F061F06900F08050009093
:100A1000009847F20007C4F200073868C0054DD4BB
:100A2000386840F480703860FFF7B2FD054600BFBB
:100A30003868C00542D4FFF7ABFD401B6428F7D9E6
:100A4000032002B0BDE8F081706800F00C000828B7
:100A500003D17068C0033FF576AF6068002800F0EE
:100A60000981B0F5A02F00F01D81B0F5803F00F0A6
:100A70001D81306820F480303060306820F48020A0
:100A800017E100BF2069002840F20000C4F24220B4
:100A900000F08C8001210160FFF77AFD054600BF60
:100AA000306880073FF56EAFFFF772FD401B0228EC
:100AB000F6D9032002B0BDE8F08100BFE06800284D
:100AC00000F09A80052800F0B180012800F0B28083
:100AD000306A20F001003062306A20F00400ACE09F
:100AE0000020C4F242200021C0F88014FFF750FD1E
:100AF000054600BF706A80077FF54EAFFFF748FDDF
:100B0000401B0228F6D9032002B0BDE8F08100BFE7
:100B10000027C4F2422700203866FFF739FD022D76
:100B200005460DD13068800140F1D680FFF730FDD9
:100B3000401B02284FF00300F4D902B0BDE8F08159
:100B4000306880014FD5FFF723FD401B02284FF08E
:100B50000300F5D9F1E700BF40F20800C2F200003F
:100B6000006844F6D351C1F26201A0FB0101480ABA
:100B7000019000BF00BF0198411E002801913FF481
:100B80000BAF00BF0198411E002801913FF404AF54
:100B900000BF0198411E002801913FF4FDAE00BF47
:100BA0000198411E00280191E4D1F5E60021016081
:100BB000FFF7EEFC054600BF306880077FF5E9AE21
:100BC000FFF7E6FC401B02284FF00300F4D9B4E71E
:100BD0007068216A00F480328A4209D1616A00F4A7
:100BE0007010884204D1002002B0BDE8F08100BF3F
:100BF000012002B0BDE8F081306A20F001003062CF
:100C0000306A20F004003062FFF7C2FC054641F272
:100C1000883700BF306A800722D5FFF7B9FC401B38
:100C2000B8424FF00300F5D987E700BF306A40F0C3
:100C300004003062306A40F001003062FFF7A8FC27
:100C4000054641F2883700BF306A800708D4FFF7B5
:100C50009FFC401BB842F7D9032002B0BDE8F081E9
:100C6000B8F1000F3FF59BAEF06920F08050F061C5
:100C700095E600BF306820F480303060306820F4A2
:100C800080203060FFF784FC054600BF3068800399
:100C90007FF560AEFFF77CFC401B64284FF003003B
:100CA000F4D94AE7306840F480203060306840F47E
:100CB00080303060FFF76CFC054600BF3068800371
:100CC0003FF548AEFFF764FC401B6428F6D90320CB
:100CD00002B0BDE8F08100BF206AB0F5803F05D1C9
:100CE0007168A26821F40031114371607168626A11
:100CF00021F4741111430843706001203866FFF736
:100D000047FC0446306880013FF56DAFFFF740FCBB
:100D1000001B02284FF00300F4D90EE7411E00200B
:100D2000B0EB116F1CBF012070474EF21002CEF2E3
:100D3000000251604EF62351CEF20001F0230B70F9
:100D400007219060116070477047000070470000F5
:100D5000B0B582B0044600680168C368426901F01A
:100D60002F05202D03F0200506D12DB1204602B01D
:100D7000BDE8B04000F0EEBC5FEA017C1EBF02F0AF
:100D8000010E03F4907212EB0E0243D1226BCD06DA
:100D900018D5012A16D113F0100213D000210191A9
:100DA00001680191416801910199406940063BD475
:100DB000A08DE18DE28D002A18BF884240F0F281BB
:100DC00002B0B0BD0A0640F1E78013F0800200F0E7
:100DD000E38094F841102129F2D1A168B1F5805F38
:100DE00003D12169002900F06382216A4A1C226232
:100DF00009784160E18C01390A04E184E0D1C168DD
:100E000021F08001C160C16841F04001C16002B0C1
:100E1000B0BD00BFCA0718BF13F4807240F0D08085
:100E20004A0700F1D380D8E0E06B016849688AB2D4
:100E3000002AC5D0A38D9A42C2D2E18580692028BC
:100E400000F09E80206850E8030F216820F4807035
:100E500041E80302DAB1206850E8030F216820F46A
:100E6000807041E8030292B1206850E8030F2168C6
:100E700020F4807041E803024AB1206850E8030F73
:100E8000216820F4807041E80302002ADAD120684A
:100E900050E8050F216820F0010041E80502C2B3C7
:100EA000206850E8050F216820F0010041E80502A4
:100EB0007AB3206850E8050F216820F0010041E86E
:100EC000050232B3206850E8050F216820F00100C8
:100ED00041E80502002ADAD11BE000BF206850E893
:100EE000050F216820F0400041E80502DAB12068D2
:100EF00050E8050F216820F0400041E8050292B15A
:100F0000206850E8050F216820F0400041E8050204
:100F10004AB1206850E8050F216820F0400041E800
:100F20000502002ADAD1202084F842000020206344
:100F3000206850E8030F216820F0100041E8030208
:100F4000DAB1206850E8030F216820F0100041E872
:100F5000030292B1206850E8030F216820F01000CE
:100F600041E803024AB1206850E8030F216820F0ED
:100F7000100041E80302002ADAD1E06BFFF77CF9A8
:100F800002206063A08DE18D401A81B2204602B03C
:100F9000BDE8B040FFF7D8BE49067FF511AF13F0AA
:100FA00040013FF40DAFC16821F04001C160202134
:100FB000204684F8411002B0BDE8B04000F0B4BB58
:100FC000626C42F0010262644A0706D5BEF1000F6E
:100FD00003D0626C42F0020262648A0706D5BEF159
:100FE000000F03D0626C42F004026264BCF1000F97
:100FF00006D55EEA050203D0626C42F00802626424
:10100000626C002A3FF4DCAE890604D51DB120468F
:1010100000F0A0FB20684069616C00F0400001F026
:101020000801401800F0B680206850E8030F2168DE
:1010300020F4907041E80302BAB3206850E8030F2F
:10104000216820F4907041E8030272B3206850E8F0
:10105000030F216820F4907041E803022AB320684E
:1010600050E8030F216820F4907041E80302002A41
:10107000DAD11AE0206850E8050F216820F001005D
:1010800041E80502DAB1206850E8050F216820F038
:10109000010041E8050292B1206850E8050F21687F
:1010A00020F0010041E805024AB1206850E8050F30
:1010B000216820F0010041E80502002ADAD1206B06
:1010C000012824D1206850E8030F216820F0100087
:1010D00041E80302DAB1206850E8030F216820F0EC
:1010E000100041E8030292B1206850E8030F216824
:1010F00020F0100041E803024AB1206850E8030FD5
:10110000216820F0100041E80302002ADAD12020F3
:1011100084F842000020206320684069400640F1C6
:10112000C180206850E8050F216820F0400041E8A8
:101130000502DAB1206850E8050F216820F0400070
:1011400041E8050292B1206850E8050F216820F0BF
:10115000400041E805024AB1206850E8050F2168C7
:1011600020F0400041E80502002ADAD1E06B0028B7
:1011700000F0988041F24971C0F600014163FFF729
:101180009FF800283FF41CAEE06B416B02B0BDE855
:10119000B04008472046FFF7D9FD0020606402B048
:1011A000B0BD00BF401A00BF216851E8031F22688C
:1011B00021F4907142E80313BBB3216851E8031F87
:1011C000226821F4907142E8031373B3216851E857
:1011D000031F226821F4907142E803132BB32168A6
:1011E00051E8031F226821F4907142E80313002B99
:1011F000DAD11AE0216851E8051F226821F00101C7
:1012000042E80513DBB1216851E8051F226821F08F
:10121000010142E8051393B1216851E8051F2268D6
:1012200021F0010142E805134BB1216851E8051F87
:10123000226821F0010142E80513002BDAD12021B8
:1012400084F8421000212163216851E8031F2268BD
:1012500021F0100142E80313DBB1216851E8031FBC
:10126000226821F0100142E8031393B1216851E88C
:10127000031F226821F0100142E803134BB12168DB
:1012800051E8031F226821F0100142E80313002BEC
:10129000DAD1022281B22046626302B0BDE8B040DA
:1012A000FFF752BD204602B0BDE8B040FFF74EBD8B
:1012B000216A31F8022B6FF35F224260216299E5C7
:1012C000002804BF0120704710B5044690F8410083
:1012D00028B9002084F84000204600F063F824205C
:1012E00084F841002068D4E90212C36823F4005353
:1012F000C360036923F440531A430261D4E9042311
:101300001143C268194341F20C639A431143C1600F
:101310004169A26921F44071114343F60002C4F20D
:1013200001029042416103D0FFF7D0FA02E000BF12
:10133000FFF7E0FAD4E90023192148439900B0FBF4
:10134000F1F048F21F5CC5F2EB1CA0FB0C314FF62C
:101350009C734909C0F6FF7301FB0300322303EBC2
:101360000010A0FB0C03F02000EA531000EB01106A
:10137000C3F34311084490601069202120F4904089
:101380001061506920F02A005061D06840F400508C
:10139000D0600020606484F8411084F842106063DB
:1013A00010BD000070B586B040F60004C4F2010420
:1013B000006804F5405100268842049602D006B029
:1013C00070BD00BF41F21800C4F20200016802AD16
:1013D00041F480410160016801F48041019101996B
:1013E000016841F0040101600068294600F0040032
:1013F000019001984FF400700290022003900320A6
:1014000005902046FEF7B6FF4FF48060CDE9020656
:10141000204629460496FEF7ADFF25200121002233
:10142000FFF736F92520FFF721F906B070BD00005F
:1014300090F84230202B07D100294FF0010318BF4C
:10144000002A05D11846704702231846704700BF8E
:1014500000230363816222218285C285436480F870
:1014600042100169006819B1C16841F48071C1601E
:10147000416941F001014161C16841F02001C16051
:1014800018467047B0B540F27004C2F2000400681C
:101490006168884218BFB0BD254615F8040B00F0FE
:1014A00067FF284621460122BDE8B040FFF7C0BFD4
:1014B0002DE9F04381B0044690F84100202840F027
:1014C000B180884600294FF0010000F0D680164612
:1014D000002A00F0D2800020606421201D4684F89C
:1014E0004100FFF755F8A684E684A1680646B1F5E9
:1014F000805F03D12069002800F0988047464FF0B4
:101500000008E18C2068002900F0968005F10109AF
:101510000BE000BF47B317F8011B4160E18C0139B4
:10152000E184E18C002900F0878001680906F1D48C
:10153000B9F1000F0AD0EDB1FFF72AF8801BA842DD
:1015400018D8206801680906F6D5E3E7016809069E
:10155000E0D4016809065CBF01685FEA0161D9D483
:1015600001680906F2D5D5E738F8021B00276FF3AA
:101570005F21D2E7206850E8030F216820F4D07083
:1015800041E80302BAB3206850E8030F216820F451
:10159000D07041E8030272B3206850E8030F21685D
:1015A00020F4D07041E803022AB3206850E8030F0A
:1015B000216820F4D07041E80302002ADAD11AE051
:1015C000206850E8050F216820F0010041E805027D
:1015D000DAB1206850E8050F216820F0010041E8E9
:1015E000050292B1206850E8050F216820F0010043
:1015F00041E805024AB1206850E8050F216820F053
:10160000010041E80502002ADAD1202084F84100D7
:1016100084F84200002084F84000032001B0BDE8B7
:10162000F08300BF022001B0BDE8F0830027E18C09
:10163000206800297FF46AAF0168490619D4FDB11A
:10164000691C0DD10168490613D4016849065CBFC5
:1016500001685FEA41610CD401684906F2D508E0EF
:10166000FEF796FF801BA8420AD820680068400653
:10167000F6D5202084F84100002001B0BDE8F083B9
:10168000206850E8030F216820F4D07041E803027D
:10169000002A3ED0206850E8030F216820F4D07063
:1016A00041E80302AAB3206850E8030F216820F440
:1016B000D07041E8030262B3206850E8030F21684C
:1016C00020F4D07041E80302002AD9D121E000BF04
:1016D000206850E8050F216820F0010041E805026C
:1016E000002A3FF492AF206850E8050F216820F0EF
:1016F000010041E80502002A3FF487AF206850E866
:10170000050F216820F0010041E80502002A3FF49E
:101710007CAF206850E8050F216820F0010041E807
:101720000502002AD4D170E770470000FEE70000F0
:10173000FEE70000FEE70000704700007047000071
:10174000FEF72CBF70470000406A0021C185C184AC
:10175000FFF7FCBA81B090F84210222921D18368AA
:101760000246B3F5805F09D152F8281F52F8183CA1
:10177000002B63D003685B680AE000BF52F8281FA3
:1017800013B90369002BF5D003685B6803F07F038E
:101790000B70116801311160C18D01390A04C185D6
:1017A00002D001B0704700BF0168CA6822F0200271
:1017B000CA60CA6822F48072CA604A6922F00102D3
:1017C0004A61202180F8421000214163026B012A06
:1017D0003CD10163016851E8031F026821F0100148
:1017E00042E80313DBB1016851E8031F026821F0EE
:1017F000100142E8031393B1016851E8031F026826
:1018000021F0100142E803134BB1016851E8031FB6
:10181000026821F0100142E80313002BDAD10168BD
:101820000A68D20606D5002200920A68009249682A
:1018300000910099818D01B0FFF786BA0268526865
:101840006FF35F2221F8022B8162A5E701B0FFF759
:1018500019BE000040F27400C2F20000FFF778BA2F
:10186000FEE7000090B0FEF7A7FE00240120CDE9BE
:101870000B44CDE9094406900A904FF4E0104FF470
:10188000803102250F9006A8CDE90714CDE90D514E
:10189000FFF744F820B1EFF3108072B6FEE700BF07
:1018A0000F20CDE901054FF48060CDE9040401A8C3
:1018B00002210394FEF728FF20B1EFF3108072B6E7
:1018C000FEE700BF41F21800C4F20200016841F2D5
:1018D000000441F0100101600168C4F2010401F04C
:1018E0001001069106990168002241F02001016073
:1018F00001684FF4005501F0200106910699016836
:10190000002641F00401016000684FF4005100F02E
:101910000400069006982046FEF734FE0120CDE92B
:1019200007060220099006A920460695FEF722FD2B
:1019300040F27005C2F2000504F52051284640F837
:10194000041F4FF4E1310C22C0E90116C0E903661F
:10195000C0E90526C661FFF7B3FC28B1EFF310809C
:1019600072B600BFFEE700BF40F20814C2F20004E6
:101970002046002100F020F800F0B8FD281D29467F
:101980000122FFF755FD06AD00F0AAFD0028FBD0AF
:1019900000F0B6FD8DF8180020462946012200F01F
:1019A00023F8F1E70A7841F20000C4F201004FF495
:1019B0000051FEF7E7BD000080F8001240F20C3144
:1019C000C2F2000109680022A0F8F821C0E938221B
:1019D00080F8E820C0E93011C0E93222C0E93422A1
:1019E000C0E93622704700002DE9F04F8BB0044665
:1019F000002A00F0B98204F1EC0048F2203544F2EC
:101A0000901E079004F1E40092468B46CEF6B8553E
:101A1000C7F2DC6E089004F1E80000264FF00009E0
:101A2000069006E084F8F90109F10109D14500F0BA
:101A30009B8294F8F8211BF80910022A08D1552935
:101A400084F8F861F0D0AA2914BF00200120E9E74A
:101A500094F8F931AA294FF000074FF0000008BFB1
:101A6000571C092B84F8F871DCD8DFE813F0170055
:101A700019005B009500D5001D0123012B010B000F
:101A8000330100BFD4E97B020843D143C4F8EC0121
:101A900088424FF0000008BF0920C3E7C4E700BF39
:101AA0004FFA81FC84F8FB11C94385EA5102CB0748
:101AB00084F8FA6108BF4A088F074CF2194085EA9A
:101AC00052034FEA4177C0F26D7058BF530800EAE5
:101AD000E777080748F63200C0F6DB6048BF4740AA
:101AE000C80641F26400C1F6B75048BF47408806B7
:101AF00042F2C800C3F66E3048BF474087EA9310F1
:101B0000910648BF80EA0E00990648BF6840BCF1C4
:101B1000000FC4F8F0014EBF022084F8FC610320DE
:101B200080E700BFD4F8F00184F8FC11484085EA52
:101B30005001C20708BF410883074CF2194785EAE4
:101B400051024FEA4073C0F26D7758BF4A0807EA66
:101B5000E373070748F63207C0F6DB6748BF7B40F0
:101B6000C70641F26407C1F6B75748BF7B408006FD
:101B700042F2C800C3F66E3048BF434083EA921079
:101B8000890648BF80EA0E00910648BF6840C4F845
:101B9000F001032046E700BFD4F8F00184F8FD11FE
:101BA000484085EA5002C30784F8FE1108BF420886
:101BB00087074CF2194685EA52034FEA4077C0F294
:101BC0006D7658BF530806EAE777060748F63206EF
:101BD000C0F6DB6648BF7740C60641F26406C1F630
:101BE000B75648BF7740800642F2C800C3F66E3051
:101BF00048BF474087EA9310920648BF80EA0E002C
:101C00009A0648BF6840C4F8F00104200026002965
:101C100008BF052006E700BF94F8FA014CF2194707
:101C2000421C84F8FA21D4F8F021204480F8EC100A
:101C300082EA010085EA5001C20708BF4108830714
:101C400085EA51024FEA4073C0F26D7758BF4A08E7
:101C500007EAE373070748F63207C0F6DB6748BFB9
:101C60007B40C70641F26407C1F6B75748BF7B40C7
:101C7000800642F2C800C3F66E3048BF434083EA94
:101C80009210890648BF80EA0E00910648BF68405E
:101C900094F8FD11C4F8F001481E010684F8FD0116
:101CA0007FF4C2AE0520BDE60806C4F8EC010620AC
:101CB000B8E600BFD4F8EC0140EA0140C4F8EC01FA
:101CC0000720AFE6D4F8EC0140EA0120C4F8EC01AB
:101CD0000820A7E6552940F0088140F20C3194F81D
:101CE000FB21C2F2000194F8FC0194F8FE7109682E
:101CF000FE2AC4F8C41013D0FF2A25D194F8E68038
:101D000094F8E730A0EB0801A3EB0803CFB2DBB2F5
:101D10009F422BD9D4F8D0000130C4F8D000E4E0C1
:101D2000D4F8D800089A0130C4F8D800002084F80C
:101D3000E200A4F8DC00A4F8E00010601071C4E92F
:101D40003011C4F8C8006DE64FFA82F80026B8F1E9
:101D5000FF3F67DD94F80032079908F03F003A46EC
:101D60007646FFF71FFEB64600208AE094F8ECC0E6
:101D700094F8E470404584F8E60000F0B4806FEA1F
:101D80000806064494F8E220B4F8DC30F6B2032EDC
:101D9000CDE9092CCDE9040130D301F0FC0C4FF062
:101DA000000E0846791CFEB201F00F0106EB460654
:101DB00001EB410104EB860604EB8101B6798979D8
:101DC000BA1C02F00F023144FE1C02EB420206F084
:101DD0000F0604EB820206EB4606927904EB8606B8
:101DE000B67911443A1D0EF1040E02F00F0731448A
:101DF0005FFA8EF26245A3EB0103D3D1059800266A
:101E000010F0030104985ED07A1C02F00F0E07EB6D
:101E1000470204EB820292790129A3EB02033BD132
:101E2000774650E094F8E820C4F8C81090422BD1CF
:101E3000411C94F8000284F8E81000F0DFF90B2848
:101E400012D394F8E820FF20069B009601902046CC
:101E5000FF210126029600F0D7F940F20C30C2F2C1
:101E600000000068C4F8C00094F80032079908F038
:101E70003F003A46FFF796FD44F2901E0020C7F25D
:101E8000DC6E0026CEE500BFD4F8D4000130C4F8E3
:101E9000D4000020C6E500BFBA1C02F00F0C0EEB08
:101EA0004E0204EB820292790229A3EB020301D1D4
:101EB000674608E00CEB4C0204EB82029279F91CB5
:101EC00001F00F079B1A099AA8EB000144F2901E3B
:101ED000DDF828C01144C7F2DC6E84F8E47084F8A1
:101EE000E210A4F8DC30844502D100209AE500BF5E
:101EF000ACEB00004FF00008099000BFF8B200EB17
:101F0000400604EB86008179C379027A80880291C9
:101F100043F0800140F210330A9700902046C2F24D
:101F2000000340F2FF3701975746DA46F34600F0C8
:101F30006BF940F20C30C2F200000068099944F8D5
:101F400026000A9808F101080130DE46D346BA4659
:101F500000F00F075FFA88F0C9B2002688424FF000
:101F60000000CBD35EE500BF00F032F994F8E72023
:101F700094F8E6608346931BD4E93108D9B240F265
:101F80000C370F29C2F20007C7F800B03AD894F80E
:101F9000E2708F4236D994F8E400184400F00F0044
:101FA00000EB400904EB8906374617F8061F94F842
:101FB000000201F10B0A00F021F9824500F2DC80F9
:101FC00094F8E720B188F07940F2FF333F7832721D
:101FD000CDE9001340F2103340F08001C2F200035B
:101FE0002046029700F010F940F20C30C2F20000D7
:101FF000006894F8E71044F82900481C84F8E700CA
:10200000BAE000BFB24200F0B780ABEB0000C008FE
:102010007C2800F2B18094F8E410F64301EB410013
:1020200054F820C03244D2B204EB8007ABEB0C0072
:10203000032A03F0030C46D303F0FC0E002600BF76
:10204000CAB202EB420254F822300436ABEB03036F
:10205000834288BF04EB820701F1010202F00F0204
:1020600002EB420254F8225088BF1846ABEB05033E
:10207000834288BF04EB820701F1020202F00F02E3
:1020800002EB420254F8225088BF1846ABEB05031E
:10209000834288BF04EB820701F1030202F00F02C2
:1020A00002EB420254F8225088BF1846ABEB0503FE
:1020B000834284BF04EB820718460431F2B27245B2
:1020C00001F00F01BCD1BCF1000F2FD001EB410298
:1020D00054F82230ABEB0303834288BF04EB820742
:1020E000BCF1010F22D04A1C02F00F0202EB4202A7
:1020F00054F82260834288BF1846ABEB0603834244
:1021000088BF04EB8207BCF1020F0FD0023101F04F
:102110000F0101EB410154F821208342ABEB020295
:1021200088BF1846824288BF04EB81073868ABEB52
:102130000000322820D3B97994F8000201F10B0590
:1021400000F05CF8854217D8B988F87940F2FF337F
:10215000BE793A7ACDE9001340F2103340F08001A5
:10216000C2F200032046029600F04EF840F20C3016
:10217000C2F200000068386040F20C30C2F2000089
:102180000068D4F8C010401A1A281ED3ABEB080020
:10219000C0087C2819D894F8000200F02FF80B280A
:1021A00013D3234613F8E82FFF2000210127CDE9A0
:1021B00000102046FF21029700F026F840F20C3074
:1021C000C2F200000068C4F8C0000BB0BDE8F08F98
:1021D000FEF7DEB980B582B040F27000C2F20000B6
:1021E0008DF8071004300DF107010122C823FFF715
:1021F0005FF902B080BD0000704700004FF400702E
:1022000070470000704700002DE9F04F81B0044690
:1022100002200C9EDDE90A5784F8FF014FF0FF30E1
:10222000C4F8F40194F800029A46904689464FFAA1
:1022300081FBFFF7E7FF94F80002AA21FFF7CAFF2E
:1022400094F80002AA21FFF7C5FF94F80002AA2122
:10225000FFF7C0FF20464946012200F0DDF8BBF140
:10226000FF3F04DC20464146012200F0D5F820461D
:102270003146012200F0D0F86EB100BFA8B21AF8C2
:1022800000102046012200F0C7F8681C013E31060C
:1022900000EA0705F2D1D4F8F401C64394F800022D
:1022A000350E2946FFF796FFAA2D0BD194F8FF01B2
:1022B0000138010684F8FF0107D194F80002552186
:1022C000FFF788FF022084F8FF0194F80002C6F3AC
:1022D00007452946FFF77EFFAA2D0BD194F8FF0191
:1022E0000138010684F8FF0107D194F80002552156
:1022F000FFF770FF022084F8FF0194F80002C6F394
:1023000007252946FFF766FFAA2D0BD194F8FF0198
:102310000138010684F8FF0107D194F80002552125
:10232000FFF758FF022084F8FF0194F80002F5B28D
:102330002946FFF74FFFAA2D0BD194F8FF01013872
:10234000010684F8FF0107D194F800025521FFF738
:1023500041FF022084F8FF0194F800025521FFF7A5
:1023600039FF94F8000201B0BDE8F04FFFF744BF19
:10237000014640F2BC00C2F2000000F031B800009B
:102380008188C28891422FBF881A0089891A08441F
:1023900080B270470023C0E900130281704700003B
:1023A0008388C288934202BF4FF0FF0C4FFA8CF033
:1023B000704780B502F1010EB0F808C00FFA8EF335
:1023C000634503684FF0000C9A5CA8BFE6460A70AC
:1023D000A0F806E0BDE880404FFA8CF0704700009E
:1023E00080B5B0F804C0B0F808E00CF101039AB26F
:1023F000724528BF0023B0F806E09AB2724503D1B7
:10240000FF2040B280BD00BF026802F80C1083803C
:10241000002040B280BD000070B5044690F8000274
:1024200016460D46FFF7D6FE36B9AA2D46D0022035
:1024300084F8FF0170BD00BFD4F8F40148F2203CDD
:1024400080EA0501CEF6B85C8CEA5102CB0708BFE2
:102450004A088E074CF219408CEA52034FEA417643
:10246000C0F26D7048F6320E58BF530800EAE670AD
:10247000C0F6DB6E0E0748BF80EA0E0041F2640E24
:10248000CE06C1F6B75E48BF80EA0E0042F2C8062B
:10249000C3F66E36890648BF704080EA931044F256
:1024A0009011C7F2DC61920648BF4840990648BFC8
:1024B00080EA0C00C4F8F401AA2DB8D194F8FF0109
:1024C0000138010684F8FF0118BF70BD94F80002BE
:1024D0005521FFF77FFE022084F8FF0170BD000048
:1024E00040F2BC00C2F20000FFF74ABF40F2BC005D
:1024F000C2F2000000F10C014022FFF74BBF0000C8
:1025000080B582B040F2BC00C2F200000DF10701BC
:10251000FFF746FF9DF8070002B080BD00000000F5
:102520000000000001020304060708090000000083
:1025300001020304010202030405060708090A0B4D
:102540000C0D0E0F10100000682500080000002080
:10255000100000005001000878250008100000203D
:10256000080D0000700100080100000010000000CC
:082570000024F400000000004B
:04000005080000ED02
:00000001FF
