:020000040800F2
:10000000D80A0020B50100080D170008E912000801
:1000100009170008AD030008A11F00080000000038
:10002000000000000000000000000000951F000814
:10003000B10300080000000011170008991F000814
:10004000CF010008CF010008CF010008CF01000850
:10005000CF010008CF010008CF010008CF01000840
:10006000CF010008CF010008CF010008CF01000830
:10007000CF010008CF010008CF010008CF01000820
:10008000CF010008CF010008CF010008CF01000810
:10009000CF010008CF010008CF010008CF01000800
:1000A000CF010008CF010008CF010008CF010008F0
:1000B000CF010008CF010008CF010008CF010008E0
:1000C000CF010008CF010008CF010008CF010008D0
:1000D000CF010008CF010008CF010008CF010008C0
:1000E000CF010008CF010008CF01000800F002F89E
:1000F00000F050F814A696E8000CB244B344DA4578
:1001000001D100F047F8BAE80F000FA696E83000DA
:10011000A5EB040504EB0607AAEB0704A7F101070A
:100120004FEA15154FEA3414A4F10104AC4201D38F
:1001300000F030F813F0010F18BFFB1A43F0010371
:1001400000F001F8DBE71847502700007027000097
:10015000103A24BF78C878C1FAD8520724BF30C8F3
:1001600030C144BF04680C60704700007047000055
:100170000023002400250026103A28BF78C1FBD8B0
:10018000520728BF30C148BF0B6070471FB51FBD65
:1001900010B510BD00F0CFF81146FFF7F7FF01F0E2
:1001A00001FF00F0EDF803B4FFF7F2FF03BC00F02D
:1001B000F5F800000948804709480047FEE7FEE7D8
:1001C000FEE7FEE7FEE7FEE7FEE7FEE7FEE7FEE707
:1001D00004480549054A064B704700009D1F00086A
:1001E000ED000008D8040020D80A0020D80600201E
:1001F000D8060020032A40F2308010F0030C00F0F3
:10020000158011F8013BBCF1020F624498BF11F850
:1002100001CB00F8013B38BF11F8013BA2F1040209
:1002200098BF00F801CB38BF00F8013B11F0030381
:1002300000F04F80083AC0F0088051F8043B083ABB
:1002400051F804CBA0E80810F5E7121D5CBF51F887
:10025000043B40F8043BAFF30080D20724BF11F801
:10026000013B11F801CB48BF11F8012B24BF00F866
:10027000013B00F801CB48BF00F8012B70474FF05D
:10028000000200B5134694469646203922BFA0E8E6
:100290000C50A0E80C50B1F12001BFF4F7AF0907F2
:1002A00028BFA0E80C5048BF0CC05DF804EB8900E3
:1002B00028BF40F8042B08BF704748BF20F8022B26
:1002C00011F0804F18BF00F8012B7047704770473E
:1002D000704710B5203AC0F00B80B1E81850A0E884
:1002E0001850B1E81850A0E81850203ABFF4F5AF04
:1002F0005FEA027C24BFB1E81850A0E8185044BF60
:1003000018C918C0BDE810405FEA827C24BF51F8CC
:10031000043B40F8043B08BF7047D20728BF31F8C0
:10032000023B48BF11F8012B28BF20F8023B48BF11
:1003300000F8012B7047754600F02CF8AE4605001A
:100340006946534620F00700854618B020B5FFF7F0
:100350003FFFBDE820404FF000064FF000074FF090
:1003600000084FF0000BAC46ACE8C009ACE8C0098F
:10037000ACE8C009ACE8C00921F007018D46704720
:1003800010B50446AFF300802046BDE81040FFF7EB
:100390000ABF0000004870471800002001491820DB
:1003A000ABBEFEE72600020070470000FEE700003B
:1003B000704700002DE9F04F82B00E68002E00F06B
:1003C000FD8041F20042C4F20102042340F2004EDB
:1003D000904208BF03234FF6FF7CC4F2010E009346
:1003E00000240123C1F2100C4FF0000A4FF0000965
:1003F00044E000BF012704F00C030F229A402BEACF
:10040000020207FA03F34FEA9A051A4346F8252039
:100410004E6840F20C45F202DEF8082054BF22EA92
:10042000080242EA0802C4F20105CEF808202A6850
:10043000B30254BF22EA080242EA08022A60B30368
:10044000DEF8042054BF22EA080242EA0802F3035D
:10045000CEF80420DEF800204FF0010354BF22EA5A
:10046000080242EA0802CEF800200E680AF1010AEA
:1004700036FA0AF204F1040400F0A08003FA0AFB41
:1004800016EA0B08F1D04E68664511DC122E55D8DD
:10049000DFE806F0340A4448545454545454545435
:1004A00054545454544C5000D1F80C9046E000BFC2
:1004B0004FF6FF72C1F2210296420FDC0022C1F218
:1004C000110296421AD00022C1F21202964215D0B1
:1004D0000022C1F22102964210D02FE00022C1F288
:1004E000220296420AD00022C1F23102964205D081
:1004F0000022C1F23202964220D100BF8A684AB17E
:10050000012A14BFC0F814B0C0F810B04FF00809A9
:1005100014E000BF4FF0040910E000BFCA6802F108
:1005200008090BE04FF0000908E000BFCA6802F1BB
:10053000040903E0CA6802F10C0900BF224606461E
:10054000B8F5807F24BF203A043637680F259540E0
:1005500027EA050509FA02F22A433260CA79D2066F
:100560007FF583AF41F21803C4F202031A68AEF5B7
:100570007E7642F001021A601A6802F001020192CE
:10058000019A2AF0030256F802B040F60002C4F2C3
:100590000102904210D040F60042C4F201029042A3
:1005A0003FF428AF41F20002C4F20102009F9042E2
:1005B00008BF02271FE700BF00271CE702B0BDE805
:1005C000F08F000040F2D440C2F200000068704793
:1005D000002804BF01207047F0B581B0044690F8B0
:1005E0003D0028B9002084F83C00204600F09AFA2B
:1005F000242084F83D002068016821F00101016099
:10060000016841F400410160016821F4004101608A
:1006100000F040FC636848F2A16CC0F2010C40F6A7
:100620000011C0F23D0163453CBF48F28041C0F279
:100630001E01884202D2012001B0F0BD4DF6836157
:10064000C4F21B31A0FB01122168970CD1F804E021
:100650004FF496762EF03F0545EA92454D6077437C
:1006600048F638160D6AC0F24106A7FB067625F05B
:100670003F07634538BF960C721C3A430A62CA6949
:1006800048F2A0664CF6FF77C0F20106B34222EAB8
:1006900007020BD801385B00B0FBF3F001306FF3B9
:1006A0001F30042898BF04201BE000BFA768013852
:1006B00057B119277B43B0FBF3F001306FF31F30C4
:1006C00070B100F5804007E003EB4303B0FBF3F0AB
:1006D00001306FF31F3018B100F5004001E000BF9A
:1006E00001201043C8610868D4E9072320F0C00046
:1006F000104318430860886848F2FF3204F10C0781
:1007000090438CCF18431043A6698860C86820F0D6
:10071000FF0038433043C860086840F001000860BB
:1007200000202021206484F83D10206384F83E00DE
:1007300001B0F0BD2DE9F04F83B01E4692468846C9
:100740000446FFF73FFF94F83D10202924D121688B
:10075000054600BF886980071AD5FFF733FF401BA5
:1007600021681A28F6D388698007F3D50020202154
:10077000206384F83D1084F83E00216C022641F08D
:100780002001216484F83C00304603B0BDE8F08FBE
:1007900094F83C00012805D10226304603B0BDE89C
:1007A000F08F00BF4FF0010984F83C900868C00743
:1007B00003D1086840F0010008600868002720F4B1
:1007C00000600860242084F83D000020CFF6FF7010
:1007D0002764E06208F0FE08BAF1010F88BFD14635
:1007E0004FF0A00A4FF0200B04E000BF01374F4547
:1007F00000F09A800868002240F48070086020466B
:100800004FF001113346009500F0CEFD216800281D
:1008100056D1C1F81080FFF7D5FE21684B694A69AF
:1008200094F83D50A02D054605D013F0020008BFF6
:1008300012F480601AD084F83DB048690A688007D5
:1008400042F400720A6047D46FF48060486100BFD0
:1008500088698007CAD5FFF7B5FE401B21681A28B2
:10086000F6D388698007F3D54CE000BFB6B100BF6E
:10087000FFF7A8FE401BB04288BF84F83DA0216866
:100880004A69486994F83D30A02BD4D012F0020296
:1008900008BF10F48060EBD0CDE700BFFFF792FEF9
:1008A00084F83DA021684A69486994F83D30A02B3E
:1008B000C1D012F00202BED110F48060EED0BAE7CF
:1008C00008680326C00544BF4FF40070206430461A
:1008D00003B0BDE8F08F00BF002602964869029081
:1008E000886902900298886901E000BF80698007EA
:1008F00020D5FFF767FE411B20681A29F6D38169CE
:100900008907F3D500202021206384F83D1084F866
:100910003E00216C41F020012164012684F83C0056
:10092000304603B0BDE8F08F202084F83D00002061
:10093000F3E700BF202084F83D0084F83C60304697
:1009400003B0BDE8F08F00002DE9F04383B01E46F0
:10095000174689460446FFF735FE94F83D102029D6
:1009600024D10546206800BF816989071AD5FFF7A1
:1009700029FE411B20681A29F6D381698907F3D51E
:1009800000202021206384F83D1084F83E00216C73
:1009900041F02001216484F83C00022003B0BDE84E
:1009A000F08300BF94F83C10012903D1022003B06A
:1009B000BDE8F083012184F83C100168C90703D128
:1009C000016841F001010160016840F2020821F470
:1009D00000610160212184F83D10102184F83E104F
:1009E0000021216467626685618DC0F2010821855E
:1009F000A8F10211E162E16A0A9E11F5803F18BF79
:100A000001291DD1016841F48071016020464FF039
:100A1000011100223346009500F0C6FC50B1206859
:100A20000068C00544BF4FF400702064012003B08B
:100A3000BDE8F0832069B0F5804F07D1FE2015E0B6
:100A40000829DFD0216B1229DCD0DFE7062000EA7D
:100A5000D9102168F030086108F1060120463246BD
:100A60002B4600F087FD0028E0D1FF20216800EA36
:100A7000090008612046414632462B4600F07AFDC7
:100A80000028D3D10020029020684169029180693A
:100A90000290029806E000BF204631462A4600F048
:100AA00025FC18BB208D68B3204631462A4600F04D
:100AB000CDFDD8B9606A2168024612F8013B0B618E
:100AC0006262628D013A6285228D531E23854F69D1
:100AD0007F07E1D51B04DFD0437802300B616062F1
:100AE000608D01386085901E2085D5E7206C042834
:100AF0009CD12068016841F400710160012003B0BD
:100B0000BDE8F0832068016841F400710160202095
:100B100084F83D00002084F83E0084F83C0003B0D7
:100B2000BDE8F08310B586B045F200410068C4F21C
:100B3000000100228842049202D006B010BD00BF1E
:100B400041F21804C4F20204206840F0080020605A
:100B5000206800F0080001900198C0200290122047
:100B600003900320059001F5384002A9FFF722FC0D
:100B7000606840F400106060606800F4001001904C
:100B8000019806B010BD000040F2000040F2D441D0
:100B9000C2F20000C2F2000100780A681044086046
:100BA0007047000080B542F20000C4F20200016804
:100BB00041F010010160032000F07AF80F2000F0EE
:100BC00005F800F027F8002080BD000070B540F265
:100BD0000006C2F2000640F210013278C2F20001B3
:100BE0004FF47A730968B3FBF2F20446B1FBF2F1F9
:100BF000084600F063FB0F2C4FF0010508D838B908
:100C00004FF0FF3021460022002500F025F87460E7
:100C1000284670BD82B041F21800C4F2020001689B
:100C2000022241F001010160016801F0010101911E
:100C30000199416841F080514160406800F0805066
:100C4000009000980420C4F20100016862F31A6168
:100C5000016002B07047000010B54EF60C5CCEF299
:100C6000000CDCF80030C3F3022E8EF00704042CD5
:100C700028BF0424BEF103034FF0FF3E0EFA04F434
:100C800038BF0023A14399400EFA03F39A4311435E
:100C900000F00F0200F160430901043A03F56443D8
:100CA0006244002848BF02F10C03197010BD000017
:100CB0004EF60C51CEF200010A684FF6FF031A40BF
:100CC00060F30A2242F0806040F0FD7008607047D7
:100CD000002804BF012070472DE9F04381B042F2A3
:100CE0000008C4F202080446D8F800000D4600F0DF
:100CF000070088420CD2D8F8000020F007002843F3
:100D0000C8F80000D8F8000000F00700A8426CD135
:100D1000206841F204098107C4F2020917D541078E
:100D200005D5D9F8001041F4E061C9F800100107B9
:100D300005D5D9F8001041F46051C9F80010D9F870
:100D40000010A26821F0F0011143C9F80010C0079B
:100D500042D1D8F8000000F00700A8420CD9D8F81A
:100D6000000020F007002843C8F80000D8F8000071
:100D700000F00700A84238D12068410707D5D9F80C
:100D80000010E26821F4E0611143C9F80010000787
:100D900008D5D9F80000216920F4605040EAC1006C
:100DA000C9F80000D9F8002002F00C00082841F230
:100DB0000020C0F27A0051D142F64A03C2F38341C7
:100DC000C0F60003595CD2033CD440F60010C0F2D8
:100DD0003D00484342E000BF606802280AD0012875
:100DE0002AD159F8041C890308D4012001B0BDE8B8
:100DF000F08300BF59F8041C8901F6D5D9F800101A
:100E000021F003010843C9F80000FFF7DBFB0646A9
:100E100041F28837D9F80000616800F00C00B0EBAF
:100E2000810F96D0FFF7CEFB801BB842F2D903208A
:100E300001B0BDE8F08300BF59F8041C8907D4D580
:100E4000DCE700BFD9F8002042F64803C2F3404275
:100E5000C0F600039A5C4843B0FBF2F0D9F80010EA
:100E600042F2C402C1F30311C0F60002515C40F229
:100E7000100220FA01F140F20400C2F20000006802
:100E8000C2F200021160FFF7A1FE002001B0BDE830
:100E9000F083000040F2100041F20401C2F20000B1
:100EA000C4F202010068096842F2D402C1F30221CF
:100EB000C0F60002515CC84070470000002804BF23
:100EC000012070472DE9F04182B00446007841F2DC
:100ED0000006C007C4F202060CD0706800F00C00D7
:100EE000042840F081803068800303D560680028C2
:100EF00000F04E81207880071BD5706810F00C0F31
:100F000009D0706800F00C00082840F08B807068F1
:100F1000C00300F187803068800703D5206901286D
:100F200040F036813068616920F0F80040EAC10085
:100F300030602078000713D4207840072CD4E5696E
:100F4000002D00F02081706800F00C00082840F0AF
:100F5000AF80012D40F00C81012002B0BDE8F0818E
:100F6000A069002800F08C800020C4F242200121FA
:100F7000C0F88014FFF726FB054600BF706A8007A3
:100F800000F1BA80FFF71EFB401B0228F6D90320B0
:100F900002B0BDE8F08100BFF0695FEAC00808D484
:100FA000F06940F08050F061F06900F080500090EE
:100FB000009847F20007C4F200073868C0054DD416
:100FC000386840F480703860FFF7FCFA054600BFCF
:100FD0003868C00542D4FFF7F5FA401B6428F7D9FA
:100FE000032002B0BDE8F081706800F00C00082812
:100FF00003D17068C0033FF576AF6068002800F049
:101000000981B0F5A02F00F01D81B0F5803F00F000
:101010001D81306820F480303060306820F48020FA
:1010200017E100BF2069002840F20000C4F242200E
:1010300000F08C8001210160FFF7C4FA054600BF73
:10104000306880073FF56EAFFFF7BCFA401B0228FF
:10105000F6D9032002B0BDE8F08100BFE0680028A7
:1010600000F09A80052800F0B180012800F0B280DD
:10107000306A20F001003062306A20F00400ACE0F9
:101080000020C4F242200021C0F88014FFF79AFA31
:10109000054600BF706A80077FF54EAFFFF792FAF2
:1010A000401B0228F6D9032002B0BDE8F08100BF42
:1010B0000027C4F2422700203866FFF783FA022D8A
:1010C00005460DD13068800140F1D680FFF77AFAED
:1010D000401B02284FF00300F4D902B0BDE8F081B4
:1010E000306880014FD5FFF76DFA401B02284FF0A2
:1010F0000300F5D9F1E700BF40F21000C2F2000092
:10110000006844F6D351C1F26201A0FB0101480A14
:10111000019000BF00BF0198411E002801913FF4DB
:101120000BAF00BF0198411E002801913FF404AFAE
:1011300000BF0198411E002801913FF4FDAE00BFA1
:101140000198411E00280191E4D1F5E600210160DB
:10115000FFF738FA054600BF306880077FF5E9AE33
:10116000FFF730FA401B02284FF00300F4D9B4E730
:101170007068216A00F480328A4209D1616A00F401
:101180007010884204D1002002B0BDE8F08100BF99
:10119000012002B0BDE8F081306A20F00100306229
:1011A000306A20F004003062FFF70CFA054641F285
:1011B000883700BF306A800722D5FFF703FA401B4B
:1011C000B8424FF00300F5D987E700BF306A40F01E
:1011D00004003062306A40F001003062FFF7F2F93B
:1011E000054641F2883700BF306A800708D4FFF710
:1011F000E9F9401BB842F7D9032002B0BDE8F081FD
:10120000B8F1000F3FF59BAEF06920F08050F0611F
:1012100095E600BF306820F480303060306820F4FC
:1012200080203060FFF7CEF9054600BF30688003AC
:101230007FF560AEFFF7C6F9401B64284FF003004E
:10124000F4D94AE7306840F480203060306840F4D8
:1012500080303060FFF7B6F9054600BF3068800384
:101260003FF548AEFFF7AEF9401B6428F6D90320DE
:1012700002B0BDE8F08100BF206AB0F5803F05D123
:101280007168A26821F40031114371607168626A6B
:1012900021F4741111430843706001203866FFF790
:1012A00091F90446306880013FF56DAFFFF78AF988
:1012B000001B02284FF00300F4D90EE7411E002066
:1012C000B0EB116F1CBF012070474EF21002CEF23E
:1012D000000251604EF62351CEF20001F0230B7054
:1012E0000721906011607047FEE7000070B5036849
:1012F000044653F8140F400711D40E46481C29D059
:1013000086BB00BF1868400527D4FFF75BF9236848
:1013100053F8140F400737D518684007F2D500205E
:1013200070BD00BF18684007F9D41868400514D490
:1013300018684007F3D4186840050ED418684007B1
:10134000EDD41868400508D4186840074FF0000035
:1013500048BF70BD18684005E4D56FF48060186020
:10136000042012E0154603E053F8140F4007D6D4CA
:1013700018684005F1D4FFF725F9401B2368B042F7
:10138000F2D958694007EFD42020002120222163A0
:1013900084F83D2084F83E10226C10432064012024
:1013A00084F83C1070BD00002DE9F041054600684E
:1013B0001E46144601F47F0201338FB242D0DDF89D
:1013C0001880B2F5803F40F0878040693840C01BEC
:1013D000B0FA80F04009A04240F0C8804EB924E045
:1013E00040693840C01BB0FA80F04009A04240F08C
:1013F000BD80FFF7E7F8A0EB08012868B142EFD9FC
:1014000041693940C91BB1FA81F14909A142E7D1CB
:101410009BE000BF40693840C01BB0FA80F0400933
:10142000A0424FF0000040F0A280FFF7CBF8286800
:1014300041693940C91BB1FA81F14909A142E9D199
:1014400083E000BFB2F5803F24D100BF416939403D
:10145000C91BB1FA81F14909A14240F08780416975
:101460003940C91BB1FA81F14909A14240F07E809F
:1014700041693940C91BB1FA81F14909A14275D1CD
:1014800041693940C91BB1FA81F14909A142DDD056
:101490006CE000BF81693940C91BB1FA81F149098B
:1014A000A14263D181693940C91BB1FA81F149096F
:1014B000A1425BD181693940C91BB1FA81F1490967
:1014C000A14253D181693940C91BB1FA81F149095F
:1014D000A142DFD04AE000BF80693840C01BB0FAAB
:1014E00080F04009A04241D146B923E080693840EC
:1014F000C01BB0FA80F04009A04237D1FFF762F874
:10150000A0EB08012868B142F0D981693940C91BB4
:10151000B1FA81F14909A142E8D116E08069384069
:10152000C01BB0FA80F04009A0424FF0000018BF85
:10153000BDE8F081FFF746F8286881693940C91B8A
:10154000B1FA81F14909A142E8D1002020212863A4
:1015500085F83D1085F83E00296C41F02001296492
:1015600085F83C000120BDE8F08100BF0020BDE807
:10157000F0810000F0B581B0044600681D46436963
:101580008FB203EA0701B94202D1002001B0F0BDD9
:101590004169164601323FD049053FD4CEB100BF64
:1015A000FFF710F8411B2068B14203D94169394067
:1015B000B94215D141693940B942E6D0416949057E
:1015C000EED52BE041693940B942DED04169490589
:1015D00024D4FEF7F7FF206841693940B942F1D0C1
:1015E000202023E041693940B942CED04169490504
:1015F00014D441693940B942C7D0416949050DD475
:1016000041693940B942C0D04169490506D44169B0
:101610003940B942B9D041694905E3D5016841F47F
:10162000007101606FF4806141610420002120227B
:10163000216384F83D2084F83E10226C104320641E
:1016400084F83C10012001B0F0BD000070B50368C3
:10165000044653F8140F000611D40E46481C29D036
:1016600086BB00BF1868400527D4FEF7ABFF236890
:1016700053F8140F000637D518680006F2D500207D
:1016800070BD00BF18680006F9D41868400514D46E
:1016900018680006F3D4186840050ED418680006D0
:1016A000EDD41868400508D4186800064FF0000013
:1016B00048BF70BD18684005E4D56FF480601860BD
:1016C000042012E0154603E053F8140F0006D6D4A8
:1016D00018684005F1D4FEF775FF401B2368B0423F
:1016E000F2D958690006EFD420200021202221637E
:1016F00084F83D2084F83E10226C104320640120C1
:1017000084F83C1070BD0000FEE70000FEE700001A
:10171000704700002DE9F04F88B00293119B012B18
:10172000C0F2B4810C4602990129C0F2AF8102993E
:1017300040F27806CF1DC2F2000607EB57773678E5
:10174000FF109BB20197B6FA86F7009301F00303EE
:101750007F0903934FF6FC73069701EA030C0027F9
:101760004FF0000A0FE000BF99B209EBD10112F867
:1017700001A000BF049F0099059C01378F4204F12E
:10178000010400F083810199A3B23F2B07FB01F90B
:10179000CDE9047420D902990023042916D20399B3
:1017A0000029E7D0590700F0C7804FEA4A0A039999
:1017B0000129DFD0C9E000BF99B209EBD101545C27
:1017C000043399B261454FEAC40AE8D05907F3D50A
:1017D0004FEA4A04F4E700BF04F00703012101FACD
:1017E00003FE4FF68071C0F20F0101EA0411079168
:1017F00002996FEA0E0B04294FF0000311D20399EE
:101800000029B7D0590700F0AB804FEA4A0A4FFAD7
:101810008AF1B1F1FF3F00F3C580ABE004339C4592
:10182000EDD05C0708D4C3F3CC044C44145D66B21D
:10183000B6F1FF3F1EDC05E04FEA4A0466B2B6F19E
:10184000FF3F17DC1E18B6B27F2E13D8079940F25F
:1018500080080E44C2F2000818F806501299069F3C
:101860005FFA81FA05EA0B01574508BF45EA0E0108
:1018700008F8061061004CB2B4F1FF3F1ADC43F0E7
:10188000010101448EB27F2E14D8079940F28008DE
:101890003144C2F20008129E18F801505FFA86FA2D
:1018A000069E05EA0B07564508BF45EA0E0708F8ED
:1018B000017000BF61004CB2B4F1FF3F1ADC43F08D
:1018C000020101448EB27F2E14D8079940F280089D
:1018D0003144C2F20008129E18F801505FFA86FAED
:1018E000069E05EA0B07564508BF45EA0E0708F8AD
:1018F000017000BF61004FFA81FABAF1FF3F8DDC41
:1019000043F0030101448CB27F2C3FF687AF079967
:1019100040F280082144C2F2000818F80140129DEC
:10192000069FEDB204EA0B06AF4208BF44EA0E067A
:1019300008F8016072E700BF99B209EBD10112F813
:1019400001A0039901293FF415AF5E1C710739D03E
:101950004FEA4A0A039902293FF40CAF3BE000BF6B
:10196000C3F3CC01494412F801A04FFA8AF1B1F156
:10197000FF3F17DC19188CB27F2C13D8079940F25F
:1019800080082144C2F2000818F80140129D069F09
:10199000EDB204EA0B06AF4208BF44EA0E0608F8AF
:1019A000016000BF039901293FF4E4AE5C1C6107AC
:1019B00018D04FEA4A0A4FFA8AF1B1F1FF3F32DC00
:1019C0001AE000BFB1B209EBD10112F801A00399EE
:1019D00002293FF4CFAE023359073FF4C5AE4FEAB8
:1019E0004A0AC7E6C4F3CC01494412F801A04FFAF1
:1019F0008AF1B1F1FF3F16DC21188CB27F2C12D88E
:101A0000079940F280082144C2F2000818F801400A
:101A1000129D069FEDB204EA0B06AF4208BF44EAEE
:101A20000E0608F80160039902293FF4A3AE0233C1
:101A3000590709D04FEA4A0A4FFA8AF1B1F1FF3F3C
:101A40003FF798AE0BE000BFC3F3CC01494412F856
:101A500001A04FFA8AF1B1F1FF3F3FF78BAE1918A1
:101A60008BB27F2B3FF686AE079940F28007194470
:101A7000C2F200077B5C129C069EE4B203EA0B05EF
:101A8000A64208BF43EA0E057D5473E608B0BDE8E0
:101A9000F08F000040F27802C2F200025080918084
:101AA000704700002DE9F04182B040F28040C2F260
:101AB00000007821012244F62063FEF73BFE4FF040
:101AC000000418B1204602B0BDE8F08140F2804524
:101AD0004FF42E40C2F20005ADF806000A260DF1C3
:101AE00006022846782102230096FEF72DFF4FF4C8
:101AF00000580DF10602284678210223ADF8068031
:101B00000096FEF721FF4FF480570DF1060228469C
:101B100078210223ADF806700096FEF715FF4FF40A
:101B20003040ADF806000DF1060228467821022368
:101B30000096FEF709FF4FF44840ADF806000DF19E
:101B400006022846782102230096FEF7FDFE0DF1DD
:101B50000602284678210223ADF806400096FEF7DB
:101B6000F3FE0DF10602284678210223ADF8067037
:101B70000096FEF7E9FE4FF48040ADF806000DF147
:101B800006022846782102230096FEF7DDFE4FF478
:101B90000140ADF806000DF1060228467821022327
:101BA0000096FEF7D1FE4FF47F40ADF806000DF130
:101BB00006022846782102230096FEF7C5FE4FF460
:101BC0002140ADF806000DF10602284678210223D7
:101BD0000096FEF7B9FE4FF42640ADF806000DF171
:101BE00006022846782102230096FEF7ADFE4FF448
:101BF0002840ADF806000DF10602284678210223A0
:101C00000096FEF7A1FE4FF47C50ADF806000DF1F2
:101C100006022846782102230096FEF795FE4FF42F
:101C20002440ADF806000DF1060228467821022373
:101C30000096FEF789FE4FF45340ADF806000DF113
:101C400006022846782102230096FEF77DFE0DF15C
:101C50000602284678210223ADF806400096FEF7DA
:101C600073FE4FF45540ADF806000DF1060228460C
:101C7000782102230096FEF767FE4FF47040ADF81E
:101C800006000DF106022846782102230096FEF791
:101C90005BFE4FF45940ADF806000DF106022846F0
:101CA000782102230096FEF74FFE4FF40850ADF85E
:101CB00006000DF106022846782102230096FEF761
:101CC00043FE4FF45A40ADF806000DF106022846D7
:101CD000782102230096FEF737FE4FF49050ADF8BE
:101CE00006000DF106022846782102230096FEF731
:101CF0002BFE4FF45B40ADF806000DF106022846BE
:101D0000782102230096FEF71FFE0DF106022846F9
:101D100078210223ADF806800096FEF715FE4FF4F9
:101D20000D40ADF806000DF1060228467821022389
:101D30000096FEF709FE4FF4A050ADF806000DF135
:101D400006022846782102230096FEF7FDFD4FF497
:101D50002F40ADF806000DF1060228467821022337
:101D60000096FEF7F1FD4FF43850ADF806000DF186
:101D700006022846782102230096FEF7E5FD40F290
:101D80008000C2F200004FF48061FEF778FA00F0A4
:101D9000B1F840F27800C2F20000C0F8024001241D
:101DA000204602B0BDE8F0812DE9F04F89B040F245
:101DB0007805C2F20005B5F802E091F8008008EB62
:101DC0000E077F2F04D8AB884E78F7183F2F03D922
:101DD000002009B0BDE8F08F002E009062D02D7871
:101DE0002038B5FA85F77C09B2FA82F702907809B3
:101DF0000790002D18BF01254868A21AB2FA82F296
:101E0000019000275009444608950690CDE903311A
:101E100004E000BF00240137B74243D2002CF9D0C0
:101E2000DA1995B23F2DF6D80298019B06FB007097
:101E300091F8008033F810A002F00700012303FAA4
:101E400000F54FF68070C0F20F0000EA021B6FEA47
:101E5000050C0022059702E0013242451CD20EEB30
:101E60000206B6B27F2EF7D840F280000AFA02F9D5
:101E70005E44C2F200005FEA0941835D0699DDE934
:101E8000077458BF87EA040103EA0C04002918BF4D
:101E900043EA05048455DFE70499039B4E78059FC8
:101EA0004446B8E75FFA88F040F278017044C2F225
:101EB000000148805DF8240BBDE8F08F0378002B0B
:101EC00004BF0020704770B514460D46461C00BF85
:101ED000D8B229462246FFF767FF16F8011C884250
:101EE00004D116F8013B002BF2D10021BDE870406F
:101EF000084670472DE9F04FC1B00DF1040B40F2D8
:101F000080460BF101094FF000086FF07F050A24AD
:101F1000C2F200064FF0000A40F280008035C2F2A3
:101F200000002F18AAF150008DF8050030467821E6
:101F30005A4602238DF804800094FEF705FD3046D2
:101F400078215A460223ADF804800094FEF7FCFC89
:101F50004FF48050ADF80400304678215A460223F1
:101F60000094FEF7F1FC40208DF804004846394605
:101F70008022FEF73FF9304678215A4681230094AB
:101F8000FEF7E2FCB5F5607F0AF1010AC4D141B069
:101F9000BDE8F08F70470000FEF7F6BD7047000007
:101FA000FEE7000092B0FEF7FDFD00240120CDE920
:101FB0000D44CDE90B4408900C904FF4E0104FF421
:101FC00080310225119008A8CDE90914CDE90F51FF
:101FD000FEF774FF20B1EFF3108072B6FEE700BF8A
:101FE0000F20CDE903054FF48060CDE9060403A876
:101FF00002210594FEF76CFE20B1EFF3108072B65B
:10200000FEE700BF41F21800C4F20200016841F689
:10201000802241F0200101600168002301F02001CD
:102020000891089901684FF4804541F0040101606E
:102030000168C0F2060201F00401089108990168E4
:1020400041F008010160006845F2004100F008001D
:102050000890089840F28040C2F20000C4F20001EB
:1020600080E80E00C0E90335C0E90533C0E9073355
:10207000FEF7AEFA20B1EFF3108072B6FEE700BFB4
:10208000FFF710FD42F65A0201251424C0F60002A3
:10209000002000211423CDE90045FFF73BFB182069
:1020A0000221FFF7F7FC40F2080105A0C2F200018F
:1020B0000122FFF703FFFFF71DFF00BFFEE700BF90
:1020C00035000000000000000000000001020304D1
:1020D00006070809000000000102030400000000D8
:1020E00000000000000000000000000000000000F0
:1020F0000010001000100010001000100000001070
:102100000000000000280028002800000000000057
:10211000000000000000000000240024007C0024D7
:102120000048007C004800480000000000380054CF
:102130000050003800140054005400380010000013
:1021400000200054005800300028005400140008FB
:102150000000000000100028002800100034004893
:1021600000480034000000000010001000100000C3
:102170000000000000000000000000000008001047
:102180000020002000200020002000200010000877
:1021900000200010000800080008000800080008DF
:1021A000001000200010003800100028000000007F
:1021B00000000000000000000000000000100010FF
:1021C000007C001000100000000000000000000073
:1021D00000000000000000000000001000100010CF
:1021E00000000000000000000000003800000000B7
:1021F00000000000000000000000000000000000DF
:10220000000000100000000000080008001000108E
:1022100000100010002000200000000000380044E2
:102220000044005400440044004400380000000012
:1022300000100030005000100010001000100010BE
:1022400000000000003800440044000400080010B2
:102250000020007C0000000000380044000400184A
:1022600000040004004400380000000000080018CA
:10227000002800280048007C00080008000000003A
:10228000007C004000400078000400040044003856
:102290000000000000380044004000780044004482
:1022A0000044003800000000007C0004000800101A
:1022B0000010002000200020000000000038004432
:1022C000004400380044004400440038000000008E
:1022D0000038004400440044003C0004004400383E
:1022E00000000000000000000010000000000000DE
:1022F00000000010000000000000000000000010BE
:10230000000000000000001000100010000000009D
:10231000000C003000400030000C00000000000005
:10232000000000000000007C0000007C00000000B5
:102330000000000000000000006000180004001809
:1023400000600000000000000038004400040008A5
:1023500000100010000000100000000000380044D1
:10236000004C0054005C00400040003800000000B9
:1023700000100028002800280028007C00440044A9
:10238000000000000078004400440078004400444D
:102390000044007800000000003800440040004085
:1023A0000040004000440038000000000070004879
:1023B0000044004400440044004800700000000055
:1023C000007C00400040007C004000400040007C59
:1023D00000000000007C0040004000780040004009
:1023E0000040004000000000003800440040004071
:1023F000005C004400440038000000000044004439
:102400000044007C004400440044004400000000FC
:1024100000380010001000100010001000100038EC
:102420000000000000040004000400040004000494
:1024300000440038000000000044004800500060E4
:1024400000500048004800440000000000400040E8
:1024500000400040004000400040007C00000000C0
:102460000044006C006C00540044004400440044EC
:102470000000000000440064006400540054004C5C
:10248000004C0044000000000038004400440044B8
:10249000004400440044003800000000007800447C
:1024A000004400440078004000400040000000006C
:1024B0000038004400440044004400440054003804
:1024C0000004000000780044004400440078004804
:1024D0000048004400000000003800440040003084
:1024E000000800040044003800000000007C0010D8
:1024F000001000100010001000100010000000007C
:1025000000440044004400440044004400440038B7
:102510000000000000440044004400280028002877
:10252000001000100000000000440044005400545B
:102530000054006C0028002800000000004400281F
:1025400000280010001000280028004400000000AF
:102550000044004400280028001000100010001063
:1025600000000000007C00040008001000100020A3
:102570000040007C00000000001800100010001057
:1025800000100010001000100010001800200020A3
:1025900000100010001000100008000800000000EB
:1025A000003000100010001000100010001000108B
:1025B0000010003000100028002800440000000037
:1025C000000000000000000000000000000000000B
:1025D0000000000000000000000000FE00200010CD
:1025E00000000000000000000000000000000000EB
:1025F0000000000000380044003C0044004C00345F
:102600000000000000400040005800640044004406
:102610000064005800000000000000000038004482
:1026200000400040004400380000000000040004A6
:102630000034004C00440044004C00340000000012
:102640000000000000380044007C004000440038D6
:1026500000000000000C0010007C001000100010B2
:102660000010001000000000000000000034004CCA
:1026700000440044004C0034000400780040004056
:10268000005800640044004400440044000000007E
:10269000001000000070001000100010001000106A
:1026A000000000000010000000700010001000107A
:1026B00000100010001000E00040004000480050F2
:1026C000006000500048004400000000007000104E
:1026D000001000100010001000100010000000009A
:1026E00000000000007800540054005400540054CE
:1026F0000000000000000000005800640044004496
:1027000000440044000000000000000000380044C5
:1027100000440044004400380000000000000000B5
:102720000058006400440044006400580040004029
:10273000000000000034004C00440044004C003411
:102740000004000400000000005800640040004045
:10275000004000400000000000000000003800447D
:102760000030000800440038000000000020002075
:102770000078002000200020002000180000000049
:10278000000000000044004400440044004C0034B9
:102790000000000000000000004400440028002861
:1027A0000028001000000000000000000054005449
:1027B0000054006C00280028000000000000000009
:1027C0000044002800100010002800440000000011
:1027D0000000000000440044002800280010001001
:1027E0000010006000000000007C000800100020C5
:1027F0000040007C000000000018001000100010D5
:102800000020002000100010001000180010001020
:102810000010001000100010001000100010001038
:102820000030001000100010000800080010001018
:10283000001000300000000000000074004C000098
:10284000000000000000000001020203040506076A
:1028500008090A0B0C0D0E0F101000600000F000AC
:102860000090000090000090000090000090000098
:102870009000019800009000039C000090000198D7
:10288000000090000090001198003909C0119800D4
:1028900000F0000060000000B828000800000020E0
:1028A0001800000050010008D0280008180000207F
:1028B000C00A0000700100080100000010000000C4
:1028C000070A0000DC2000080024F40000000000DB
:04000005080000ED02
:00000001FF
